:100000000A128A11F22C00308A000408840A82073E
:1000100000347734653464340034743475346534B2
:10002000003466347234693400346D346F346E34A5
:100030000034733475346E34003473346134743482
:0A0040000034743468347534003461
:1009E400F701F80183010A128A11D82DF92C831218
:1009F40003138C1DFE2CFF2CF92C8C11080083167C
:100A0400031311140A128A11F8240A128A11080015
:100A14008316031311150A128A11F8240A128A1173
:100A240008008316031391140A128A11F8240A1277
:100A34008A110800831203130910891072088800B0
:100A44000A128A1176250A128A11080083120313E6
:100A540009148910720888000A128A1176250A126C
:100A64008A110800362D362D0130F0020030031CA7
:100A7400F103F102FF307106031D422DFF307006B1
:100A8400031D452D462D362D472D0800F0008316F5
:100A9400031311177008831203139300512D831647
:100AA4000313111B562D572D512D582D0A128A113F
:100AB400F8240A128A110800831603138901880195
:100AC4008312031389018801803083160313940071
:100AD40028308312031394008316031391018316A1
:100AE40003178801890108008312031309150D30C7
:100AF400F100FB30F000F00B7D2DF10B7D2D822DEC
:100B04008312031309110D30F100FB30F000F00BD8
:100B1400892DF10B892D8E2D0800F1007108063AFC
:100B2400031D952D962D9A2D8316031391169F2D33
:100B34008316031391129F2D9F2D141CA22DA32DF8
:100B44009F2DA42D831203131308F0007008F200E4
:100B540014138C118316031311167208B12D080097
:100B6400F300CA2D83120313091489107308840037
:100B74000A128A1103200A128A1188000A128A11A1
:100B840076250A128A110130F2007208F307CA2D81
:100B9400730884000A128A1103200A128A11003889
:100BA400031DD52DD62DB42DD72D08000A128A1178
:100BB4005E250A128A113830F2000030F3000A125E
:100BC4008A111C250A128A110E30F2000030F3003B
:100BD4000A128A111C250A128A110A128A11012585
:100BE4000A128A11D0300A128A1148250A128A116F
:100BF40000300A128A1148250A128A1130300A126A
:100C04008A1148250A128A1145300A128A11482588
:100C14000A128A1109300A128A1148250A128A1105
:100C24000A128A110A250A128A11DC30F000FF30F8
:100C3400F1000A128A1134250A128A11212E0A128D
:100C44008A1101250A128A11D0300A128A11482504
:100C54000A128A1100300A128A1148250A128A11CE
:100C64000A128A1113250A128A11D1300A128A1122
:100C740048250A128A1183120313A7010730270299
:100C8400031C452E462E482E672E672E831603130B
:100C940091158312031327080A128A118F250A1249
:100CA4008A11F600831203132708203E8400760875
:100CB400831380000130F6007608A7070730270267
:100CC400031C652E662E482E672E0A128A110A25E9
:100CD4000A128A111030F0002730F1000A128A112A
:100CE40034250A128A1120300A128A1180260A1227
:100CF4008A11212E212E0A128A110028F500803033
:100D0400F2000030F3000A128A111C250A128A111B
:100D14007508023E840083130008F40004300310B5
:100D2400F40CFF3E031D912E74080339303EF2008B
:100D3400003003180130F3000A128A1128250A1220
:100D44008A117508023E8400831300080F39303E6F
:100D5400F200003003180130F3000A128A1128252A
:100D64000A128A113A30F2000030F3000A128A1192
:100D740028250A128A117508013E8400831300088D
:100D8400F40004300310F40CFF3E031DC42E740859
:100D94000739303EF200003003180130F3000A1224
:100DA4008A1128250A128A117508013E84008313CA
:100DB40000080F39303EF200003003180130F30010
:100DC4000A128A1128250A128A113A30F2000030D8
:100DD400F3000A128A1128250A128A117508840060
:100DE40083130008F40004300310F40CFF3E031DC9
:100DF400F62E74080739303EF20000300318013033
:100E0400F3000A128A1128250A128A11750884002F
:100E1400831300080F39303EF2000030031801300C
:100E2400F3000A128A1128250A128A11C030F2002E
:100E34000030F3000A128A111C250A128A1175085F
:100E4400043E840083130008F40004300310F40CFF
:100E5400FF3E031D282F74080339303EF200003092
:100E640003180130F3000A128A1128250A128A1184
:100E74007508043E8400831300080F39303EF200E5
:100E8400003003180130F3000A128A1128250A12CF
:100E94008A113A30F2000030F3000A128A11282530
:100EA4000A128A117508053E840083130008F400B1
:100EB40004300310F40CFF3E031D5B2F7408033948
:100EC400303EF200003003180130F3000A128A1198
:100ED40028250A128A117508053E84008313000828
:100EE4000F39303EF200003003180130F3000A12CB
:100EF4008A1128250A128A113A30F2000030F300D0
:100F04000A128A1128250A128A117508063E8400DD
:100F140083130008F40004300310F40CFF3E031D97
:100F24008E2F74080F39303EF20000300318013060
:100F3400F3000A128A1128250A128A117508063E3E
:100F44008400831300080F39303EF2000030031888
:100F54000130F3000A128A1128250A128A11E42F9B
:100F640011300A128A11B2250A128A11FF2F0D308C
:100F74000A128A11B2250A128A11FF2F05300A12A9
:100F84008A11B2250A128A11FF2F01300A128A111E
:100F9400B2250A128A11FF2F19300A128A11B225BA
:100FA4000A128A11FF2F09300A128A11B2250A1275
:100FB4008A11FF2F15300A128A11B2250A128A11DA
:100FC400FF2FFF2F7508033E840083130008013AA6
:100FD4000319B22F033A0319B92F013A0319C02F89
:100FE400073A0319C72F013A0319CE2F033A0319FD
:0C0FF400D52F013A0319DC2FFF2F080055
:00000001FF
