:060000000A128A11A12F73
:100F4200F001F10183010A128A11B42F0B1DAA2F9D
:100F5200AB2FB22F0130F0070318F10A0030F1076E
:100F6200B22F0B110800831203138501831603139A
:100F7200850183160317880189010730831603133D
:100F82008100C32F0A128A11A7270A128A11F11BA4
:100F9200CB2FCC2FDD2F7108803AFF0080307F02EB
:100FA200031DD52F1F3070020318D82FD92FDD2F24
:100FB200831203130514DD2F7108803AFF0080307D
:100FC2007F02031DE62F1E307002031CE92FEA2F59
:100FD200C32F7108803AFF0080307F02031DF32F78
:100FE2002E3070020318F62FF72FC32F831203132C
:0E0FF2000510C32FC32FC32F0A128A11002827
:00000001FF
