:100000000A128A11E52D00308A000408840A82074A
:1000100000342034723474346334203463346834EC
:0A002000653463346B34203400347F
:100BCA0083010A128A11CB2EEA2D831203138C1D7C
:100BDA00EF2DF02DEA2D8C11080083160313111442
:100BEA000A128A11E9250A128A11080083160313C8
:100BFA0011150A128A11E9250A128A1108008316A8
:100C0A00031391140A128A11E9250A128A1108009B
:100C1A008312031309108910720888000A128A11B4
:100C2A004F260A128A110800831203130914891025
:100C3A00720888000A128A114F260A128A110800BD
:100C4A00272E272E0130F0020030031CF103F10297
:100C5A00FF307106031D332EFF307006031D362E3A
:100C6A00372E272E382E0800F0008316031311178B
:100C7A007008831203139300422E83160313111B69
:100C8A00472E482E422E492E0A128A11E9250A12A7
:100C9A008A1108008312031309150D30F100FB3085
:100CAA00F000F00B562EF10B562E5B2E8312031317
:100CBA0009110D30F100FB30F000F00B622EF10B40
:100CCA00622E672E08008316031389018801831296
:100CDA000313890188018501831603138501803076
:100CEA00940028308312031394008316031391018E
:100CFA0083160317880189010800F1007108023A76
:100D0A00031D882E892E8D2E831603139116922E7B
:100D1A00831603139112922E922E141C952E962E40
:100D2A00922E972E831203131308F0007008F20014
:100D3A0014138C118316031311167208A42E0800BB
:100D4A00F300BD2E8312031309148910730884005B
:100D5A000A128A1103200A128A1188000A128A11B9
:100D6A004F260A128A110130F2007208F307BD2ECB
:100D7A00730884000A128A1103200A128A110038A1
:100D8A00031DC82EC92EA72ECA2E08000A128A11C0
:100D9A0068260A128A113830F2000030F3000A126B
:100DAA008A110D260A128A110E30F2000030F30061
:100DBA000A128A110D260A128A118030F2000030B6
:100DCA00F3000A128A110D260A128A1101300A1238
:100DDA008A11A5260A128A11DC30F000FF30F100D0
:100DEA000A128A1125260A128A11FB2E0A128A1160
:100DFA00F2250A128A11D0300A128A1139260A12E9
:100E0A008A1100300A128A1139260A128A110A1224
:100E1A008A1104260A128A11D1300A128A11392635
:100E2A000A128A11FA0103307A02031C1D2F1E2F9F
:100E3A00202F3A2F3A2F8316031391157A080A1294
:100E4A008A1182260A128A11F6007A08773E8400ED
:100E5A00760880000130F6007608FA0703307A0235
:100E6A00031C382F392F202F3A2F0A128A11FB25FB
:100E7A000A128A111030F0002730F1000A128A1182
:100E8A0025260A128A1177300A128A1153270A1262
:100E9A008A11FB2EFB2E0A128A110028F500C03097
:100EAA00F2000030F3000A128A110D260A128A1182
:100EBA007508023E84000008F40004300310F40CA4
:100ECA00FF3E031D632F74080339303EF2000030E1
:100EDA0003180130F3000A128A1119260A128A111C
:100EEA007508023E840000080F39303EF2000030D7
:100EFA0003180130F3000A128A1119260A128A11FC
:100F0A003A30F2000030F3000A128A1119260A1246
:100F1A008A117508013E84000008F40004300310A9
:100F2A00F40CFF3E031D942F74080739303EF2007B
:100F3A00003003180130F3000A128A1119260A1226
:100F4A008A117508013E840000080F39303EF2000C
:100F5A00003003180130F3000A128A1119260A1206
:100F6A008A113A30F2000030F3000A128A11192667
:100F7A000A128A11750884000008F400043003106C
:100F8A00F40CFF3E031DC42F74080739303EF200EB
:100F9A00003003180130F3000A128A1119260A12C6
:100FAA008A117508840000080F39303EF2000030BB
:100FBA0003180130F3000A128A1119260A128A113B
:100FCA007508013E840003300002031CED2FEE2F4A
:100FDA00FB2F7508013E8400053000020318F62F26
:100FEA00F72FFB2F831203130514FF2F831203130A
:060FFA000510FF2F0800A6
:00000001FF
