:060000000A128A11412FD3
:100E820083010A128A11452F831203138501073049
:100E9200831603138500831203138601831603133B
:100EA20086018312031387018316031387018316B6
:100EB2000317880189015D2F83120313061486101C
:100EC20006118611051C662F672F712F692F692F56
:100ED20005186C2F6D2F692F6E2F06308700712F2A
:100EE200851C742F752F7F2F772F772F85187A2FD8
:100EF2007B2F772F7C2F5B3087007F2F051D822F62
:100F0200832F8D2F852F852F0519882F892F852FC8
:100F12008A2F4F3087008D2F0610861406118611F6
:100F2200051C942F952F9F2F972F972F05189A2FD7
:100F32009B2F972F9C2F663087009F2F851CA22FF7
:100F4200A32FAD2FA52FA52F8518A82FA92FA52F29
:100F5200AA2F6D308700AD2F051DB02FB12FBB2FEB
:100F6200B32FB32F0519B62FB72FB32FB82F7C305D
:100F72008700BB2F0610861006158611051CC22F8E
:100F8200C32FCD2FC52FC52F0518C82FC92FC52F89
:100F9200CA2F07308700CD2F851CD02FD12FDB2FF2
:100FA200D32FD32F8518D62FD72FD32FD82FFF305B
:100FB2008700DB2F051DDE2FDF2FE92FE12FE12F29
:100FC2000519E42FE52FE12FE62FE7308700E92FFF
:100FD2000610861006118615851CF02FF12F5D2F45
:100FE200F32FF32F8518F62FF72FF32FF82FBF309B
:0E0FF20087005D2F5D2F5D2F0A128A110028E7
:00000001FF
