:060000000A128A11522FC2
:100EA40083010A128A117E2F582F582F0130F00225
:100EB4000030031CF103F102FF307106031D642F9F
:100EC400FF307006031D672F682F582F692F080005
:100ED4007108F3007008F20002300310F30CF20CF6
:100EE400FF3E031D6F2F72088312031395007008D1
:100EF4003039170497000800F401F5018312031335
:100F04008701831603138701831203138801831651
:100F1400031388010730831203139200FF308316F2
:100F2400031392000D30831203139700992FF401D9
:100F3400F5017508803AFF0082307F02031DA42F5B
:100F440000307402031CA72FA82FAA2FC92FC92F62
:100F54007508F101F1077408F001F0070A128A110B
:100F64006A270A128A110130F4070318F50A0030BF
:100F7400F5077508803AFF0082307F02031DC42FF5
:100F840000307402031CC72FC82FAA2FC92F60304A
:100F9400F000EA30F1000A128A1156270A128A1167
:100FA400FF30F4000130F500F51FD92FDA2FDC2FC4
:100FB400F22FF22F7508F101F1077408F001F00720
:100FC4000A128A116A270A128A11FF30F4070318D9
:100FD400F50AFF30F507F51FF02FF12FDC2FF22F64
:100FE4006030F000EA30F1000A128A1156270A1222
:0C0FF4008A11992F992F0A128A110028E7
:00000001FF
