:060000000A128A11A12E74
:100D4200F001F10183010A128A11B42E0B1DAA2EA1
:100D5200AB2EB22E0130F0070318F10A0030F10772
:100D6200B22E0B110800831203138501831603139D
:100D720085018312031386018316031386018316EA
:100D82000317880189010730831603138100C92ED6
:100D92000A128A11A7260A128A11F11BD12ED22E0B
:100DA200E42E7108803AFF0080307F02031DDB2EA3
:100DB200103070020318DE2EDF2EE42E063083126E
:100DC20003138600E42E7108803AFF0080307F0210
:100DD200031DED2E0F307002031CF02EF12E032F97
:100DE2007108803AFF0080307F02031DFA2E1F3007
:100DF20070020318FD2EFE2E032F5B3083120313A5
:100E02008600032F7108803AFF0080307F02031DA5
:100E12000C2F1E307002031C0F2F102F222F71086F
:100E2200803AFF0080307F02031D192F2E3070029E
:100E320003181C2F1D2F222F4F30831203138600FD
:100E4200222F7108803AFF0080307F02031D2B2F72
:100E52002D307002031C2E2F2F2F412F7108803A44
:100E6200FF0080307F02031D382F3D3070020318CF
:100E72003B2F3C2F412F6630831203138600412FF4
:100E82007108803AFF0080307F02031D4A2F3C30F8
:100E92007002031C4D2F4E2F602F7108803AFF0005
:100EA20080307F02031D572F4C30700203185A2FD7
:100EB2005B2F602F6D30831203138600602F710841
:100EC200803AFF0080307F02031D692F4B30700291
:100ED200031C6C2F6D2F7F2F7108803AFF0080302A
:100EE2007F02031D762F5B3070020318792F7A2F51
:100EF2007F2F7C308312031386007F2F7108803A84
:100F0200FF0080307F02031D882F5A307002031CBD
:100F12008B2F8C2F9E2F7108803AFF0080307F022A
:100F2200031D952F6A3070020318982F992F9E2F58
:100F320007308312031386009E2F7108803AFF0048
:100F420080307F02031DA72F69307002031CAA2F75
:100F5200AB2FBD2F7108803AFF0080307F02031D46
:100F6200B42F833070020318B72FB82FBD2FFF3074
:100F7200831203138600BD2F7108803AFF00803070
:100F82007F02031DC62F82307002031CC92FCA2F95
:100F9200DC2F7108803AFF0080307F02031DD32FBF
:100FA200923070020318D62FD72FDC2FE73083122E
:100FB20003138600DC2F7108803AFF0080307F0225
:100FC200031DE52F91307002031CE82FE92FC92E73
:100FD2007108803AFF0080307F02031DF22FA1309A
:100FE20070020318F52FF62FC92EBF308312031398
:0E0FF2008600C92EC92EC92E0A128A110028A7
:00000001FF
