:060000000A128A11CE2C49
:10099C0083010A128A11D22C831203138501FF30B2
:1009AC008316031385008312031386018316031326
:1009BC00860183120313870180308316031387008B
:1009CC0083120313880183160313880183160317FC
:1009DC008801890183120313CE01CF01CA01CB0117
:1009EC000130CC000030CD00C801C901D001D101CB
:1009FC0001304C064D04031D042D052D822D051FC1
:100A0C00082D092D2B2D0B2D0B2D051B0E2D0F2D10
:100A1C000B2D102D4E08F0007007203E8400013085
:100A2C0083138000840A00308000013020062104EA
:100A3C00031D212D222D242D063088000130CE07D8
:100A4C000318CF0A0030CF072B2D851F2E2D2F2DED
:100A5C00512D312D312D851B342D352D312D362D2C
:100A6C004E08F0007007203E840002308313800093
:100A7C00840A00308000023022062304031D472D17
:100A8C00482D4A2D5B3088000130CE070318CF0A61
:100A9C000030CF07512D871F542D552D762D572DF6
:100AAC00572D871B5A2D5B2D572D5C2D4E08F000B2
:100ABC007007203E8400033083138000840A0030CA
:100ACC008000033024062504031D6D2D6E2D702D22
:100ADC004F3088000130CE070318CF0A0030CF0703
:100AEC0003304E064F04031D7C2D7D2D822D0230CC
:100AFC00CC000030CD00822D02304C064D04031D7D
:100B0C00882D892D062E051F8C2D8D2DAF2D4A0875
:100B1C00F0007007343E8400013083138000840A97
:100B2C00003080000130CA070318CB0A0030CB0715
:100B3C009F2D051BA22DA32D9F2DA42D0130340616
:100B4C003504031DAA2DAB2DAF2D06308800AF2D1B
:100B5C00AF2D851FB22DB32DD52D4A08F00070078F
:100B6C00343E8400023083138000840A00308000FD
:100B7C000130CA070318CB0A0030CB07C52D851BE3
:100B8C00C82DC92DC52DCA2D023036063704031DBC
:100B9C00D02DD12DD52D5B308800D52DD52D871F8F
:100BAC00D82DD92DFA2D4A08F0007007343E840058
:100BBC00033083138000840A003080000130CA07A0
:100BCC000318CB0A0030CB07EB2D871BEE2DEF2D36
:100BDC00EB2DF02D033038063904031DF62DF72DBF
:100BEC00FA2D4F308800FA2D03304A064B04031DB2
:100BFC00002E012E062E0330CC000030CD00062E28
:100C0C0003304C064D04031D0C2E0D2E672ECE0109
:100C1C00CF014F08803AFF0080307F02031D182E51
:100C2C0003304E02031C1B2E1C2E1E2E672E672E0D
:100C3C00831203134E08F0007007203E84008313C8
:100C4C000008F100840A0008F2004E08F300730754
:100C5C00343E84000008F400840A0008F500720891
:100C6C007506031D3B2E71087406031D3E2E3F2E88
:100C7C00452E0130C8070318C90A0030C9070330D4
:100C8C0048064904031D4B2E4C2E522E0430CC002A
:100C9C000030CD00063087000130CE070318CF0A94
:100CAC000030CF074F08803AFF0080307F02031DD1
:100CBC00612E03304E02031C642E652E1E2E672EF1
:100CCC00672E0430831203134C064D04031D6F2E44
:100CDC00702EFE2C051C732E742E822E510850047F
:100CEC00031D792E7A2E822E7C2E7C2E05187F2EBB
:100CFC00802E7C2E06108610851D852E862E912E1C
:100D0C0051085004031D8B2E8C2E912E061086102C
:100D1C0006308700912E851C942E952EA72E5108F7
:100D2C005004031D9A2E9B2EA72E9D2E9D2E8518AA
:100D3C00A02EA12E9D2E06140130D0000030D10023
:100D4C00A72E051EAA2EAB2EBA2E0130500651042A
:100D5C00031DB12EB22EBA2E06105B3087000B305D
:100D6C00D0000030D100BA2E051CBD2EBE2ECB2ECD
:100D7C000B3050065104031DC42EC52ECB2E8614E9
:100D8C001430D0000030D100CB2E851DCE2ECF2EAE
:100D9C00DB2E143050065104031DD52ED62EDB2E1F
:100DAC0006308700D001D101DB2E051DDE2EDF2E93
:100DBC00F12E51085004031DE42EE52EF12EE72EE2
:100DCC00E72E8518EA2EEB2EE72E06140230D00003
:100DDC000030D100F12E851EF42EF52E042F02309A
:100DEC0050065104031DFB2EFC2E042F06104F3011
:100DFC0087000C30D0000030D100042F051D072FC8
:100E0C00082F1B2F0B3050065104031D0E2F0F2FD4
:100E1C001B2F112F112F8518142F152F112F06147E
:100E2C000330D0000030D1001B2F851E1E2F1F2F2A
:100E3C002E2F033050065104031D252F262F2E2F45
:100E4C0006104F3087000D30D0000030D1002E2F0F
:100E5C00851C312F322F452F0C3050065104031DA9
:100E6C00382F392F452F3B2F3B2F85183E2F3F2FE7
:100E7C003B2F86140930D0000030D100452F851C43
:100E8C00482F492F582F093050065104031D4F2F5E
:100E9C00502F582F5B30870086101530D000003053
:100EAC00D100582F851C5B2F5C2F6F2F0D305006F7
:100EBC005104031D622F632F6F2F652F652F85182B
:100ECC00682F692F652F86140430D0000030D100B4
:100EDC006F2F051E722F732F822F04305006510472
:100EEC00031D792F7A2F822F5B30870086100E30EE
:100EFC00D0000030D100822F051C852F862F992F12
:100F0C000D3050065104031D8C2F8D2F992F8F2FD0
:100F1C008F2F0518922F932F8F2F86140530D0000A
:100F2C000030D100992F851D9C2F9D2FAA2F0530A5
:100F3C0050065104031DA32FA42FAA2F8610D001F5
:100F4C00D10106308700AA2F051CAD2FAE2FC12F63
:100F5C000C3050065104031DB42FB52FC12FB72FE1
:100F6C00B72F0518BA2FBB2FB72F86140830D00017
:100F7C000030D100C12F851DC42FC52FD22F0830B2
:100F8C0050065104031DCB2FCC2FD22F8610D0012D
:100F9C00D10106308700D22F051CD52FD62FE92F73
:100FAC000E3050065104031DDC2FDD2FE92FDF2FEF
:100FBC00DF2F0518E22FE32FDF2F86140630D00029
:100FCC000030D100E92F851DEC2FED2FFE2C0630C3
:100FDC0050065104031DF32FF42FFE2C86100630FF
:100FEC008700D001D101FE2CFE2CFE2CFE2C0A1207
:040FFC008A1100282E
:00000001FF
