:060000000A128A11C12F53
:100F820083010A128A11D12FF00070088312031311
:100F92009900CB2F0C1ECE2FCF2FCB2F0C12080077
:100FA200831203138701803083160313870083168D
:100FB20003178801890126308316031398009030A5
:100FC2008312031398001930831603139900E92F33
:100FD20041300A128A11C5270A128A110630F3001B
:100FE2000E30F200B030F100F10BF52FF20BF52FBD
:0E0FF200F30BF52FE92FE92F0A128A110028C0
:02400E00E42CA0
:00000001FF
