:060000000A128A11D72E3E
:100DAE0083010A128A11DB2E83120313850102308E
:100DBE008316031385008312031386018316031310
:100DCE00860183120313870183160313870183128F
:100DDE0003138801831603138801831603178801F2
:100DEE008901F001F101FB2E83120313051C002F64
:100DFE00012F0F2F87018801042F0518072F082FA9
:100E0E00042F092F0130F0070318F10A0030F10703
:100E1E00013070067104031D152F162F182FBF30C9
:100E2E008600023070067104031D1E2F1F2F212F06
:100E3E0006308600033070067104031D272F282FFD
:100E4E002A2F5B308600043070067104031D302F8C
:100E5E00312F332F4F308600053070067104031D7D
:100E6E00392F3A2F3C2F66308600063070067104FB
:100E7E00031D422F432F452F6D308600073070061D
:100E8E007104031D4B2F4C2F4E2F7C3086000830E3
:100E9E0070067104031D542F552F572F07308600EF
:100EAE00093070067104031D5D2F5E2F602FFF3019
:100EBE0086000A3070067104031D662F672F6C2F93
:100ECE00E7308600F001F1016C2F013070067104DD
:100EDE00031D722F732F7A2F851C762F772F7A2F63
:100EEE00BF3086000714023070067104031D802F78
:100EFE00812F882F851C842F852F882F0630860002
:100F0E008714033070067104031D8E2F8F2F962FBA
:100F1E00851C922F932F962F5B3086000715043079
:100F2E0070067104031D9C2F9D2FA42F851CA02FCE
:100F3E00A12FA42F4F30860087150530700671043F
:100F4E00031DAA2FAB2FB22F851CAE2FAF2FB22FA2
:100F5E00663086000716063070067104031DB82F22
:100F6E00B92FC02F851CBC2FBD2FC02F6D30860012
:100F7E008716073070067104031DC62FC72FCE2F9C
:100F8E00851CCA2FCB2FCE2F7C308600071708303A
:100F9E0070067104031DD42FD52FDC2F851CD82F7E
:100FAE00D92FDC2F073086008717093070067104A1
:100FBE00031DE22FE32FEA2F851CE62FE72FEA2FE2
:100FCE00FF30860008140A3070067104031DF02FDE
:100FDE00F12FFB2E851CF42FF52FFB2EE73086000C
:100FEE008814F001F101FB2EFB2EFB2E0A128A1142
:020FFE000028C9
:00000001FF
