:060000000A128A114A2BCE
:100672007E088A007F08820039230A128A118000CC
:10068200840A04087D0603190034FF0A0319FE0ACE
:100692003D2B83136630FD000330FE005C30FF000B
:1006A200523084000A128A113D230A128A118301F0
:1006B2000A128A114A2CBF340034063400345B34E7
:1006C20000344F340034663400346D3400347C34EA
:1006D200003407340034FF340034E7340034F601C8
:1006E200F31F742B752B7E2BF209F309F20A0319FF
:1006F200F30AF6010314F60D7E2BF11F812B822BD8
:10070200882BF009F109F00A0319F10A882B710804
:10071200700403198D2B8E2BC42BF5010314F50DD8
:100722009E2B01300310F00DF10DFF3E031D932BA4
:100732000130F4007408F5079E2BF11FA12BA22BA8
:10074200922BA42BA42B71087302031DAA2B7008F1
:100752007202031CAD2BAE2BB52B7008F20271088E
:10076200031CF303F302B52B01300310F10CF00C60
:10077200FF3E031DB62B0130F502031DC12BC22B18
:10078200A42BC42BC42B7608031DC82BCE2BF20935
:10079200F309F20A0319F30ACE2B7308F101F107E8
:1007A2007208F001F007D52B0800F601F11FDA2BD1
:1007B200DB2BE42BF009F109F00A0319F10AF60127
:1007C2000314F60DE42BF31FE72BE82BF22BF209AF
:1007D200F309F20A0319F30A0130F4007408F60669
:1007E200F22BF701F801710870040319F92BFA2BA7
:1007F200382CF5010314F50D0A2C01300310F00D0D
:10080200F10DFF3E031DFF2B0130F4007408F507C4
:100812000A2CF11F0D2C0E2CFE2B102C102C01304B
:100822000310F70DF80DFF3E031D112C7108730222
:10083200031D1D2C70087202031C202C212C292C54
:100842007008F2027108031CF303F3027714292CD7
:1008520001300310F10CF00CFF3E031D2A2C013075
:10086200F502031D352C362C102C382C382C76082A
:10087200031D3C2C422CF709F809F70A0319F80A60
:10088200422C7808F101F1077708F001F007492CB2
:100892000800831203138501433083160313850076
:1008A2008312031386018316031386018312031333
:1008B20087018316031387018312031388018316AA
:1008C2000313880183120313890183160313890119
:1008D200831603178801890183120313CA01CB010E
:1008E200C201C301C401C501CC01CD01C601C701CA
:1008F200C801C901283084005230F9000408FA0006
:100902001430FB007908840083130008FC00F90A04
:100912007A0884007C088000FA0AFB0B832CD00141
:10092200D101BC01BD01CE01CF01A001A101A201F3
:10093200A301A401A501A601A7019F2C051CA22CBD
:10094200A32C692DA52CA52C0518A82CA92CA52C07
:10095200AA2C0130BE070318BF0A0030BF073F08A8
:10096200CB01CB073E08CA01CA070A30F0000030AB
:10097200F1004B08F301F3074A08F201F2070A12E9
:100982008A1170230A128A11710883120313C30198
:10099200C3077008C201C2070A30F0000030F1003C
:1009A2004B08F301F3074A08F201F2070A128A110F
:1009B200D6230A128A11710883120313CB01CB07C3
:1009C2007008CA01CA070A30F0000030F1004B0873
:1009D200F301F3074A08F201F2070A128A1170239F
:1009E2000A128A11710883120313C501C507700820
:1009F200C401C407642D192D831203130515851133
:100A02004208F9007907283E840083130008870012
:100A1200051685124608F9007907283E8400000869
:100A220088000130D0070318D10A0030D107192DF0
:100A32005108803AFF008B307F02031D222DB8300F
:100A42005002031C252D262DFD2C272D8312031366
:100A5200D001D101482D83120313051185154408D5
:100A6200F9007907283E84008313000887000512E5
:100A720085164808F9007907283E84000008880096
:100A82000130D0070318D10A0030D107482D510890
:100A9200803AFF008B307F02031D512DB830500287
:100AA200031C542D552D2C2D562D83120313D001CA
:100AB200D10185185D2D5E2D692D051F612D622DD9
:100AC200642D692D692D051C672D682D192D692D41
:100AD200851C6C2D6D2D332E6F2D6F2D8518722D6B
:100AE200732D6F2D742D0130C0070318C10A003019
:100AF200C1074108CD01CD074008CC01CC070A301F
:100B0200F0000030F1004D08F301F3074C08F20148
:100B1200F2070A128A1170230A128A1171088312CB
:100B22000313C701C7077008C601C6070A30F000E1
:100B32000030F1004D08F301F3074C08F201F2070F
:100B42000A128A11D6230A128A1171088312031318
:100B5200CD01CD077008CC01CC070A30F00000307F
:100B6200F1004D08F301F3074C08F201F2070A12F3
:100B72008A1170230A128A11710883120313C901A0
:100B8200C9077008C801C8072E2EE32D831203136C
:100B9200051685124608F9007907283E840083135A
:100BA20000088800051585114208F9007907283EDA
:100BB2008400000887000130D0070318D10A0030F2
:100BC200D107E32D5108803AFF008B307F02031DCD
:100BD200EC2DB8305002031CEF2DF02DC72DF12D56
:100BE20083120313D001D101122E831203130512B3
:100BF20085164808F9007907283E84008313000807
:100C02008800051185154408F9007907283E8400FB
:100C1200000887000130D0070318D10A0030D1073D
:100C2200122E5108803AFF008B307F02031D1B2ECB
:100C3200B8305002031C1E2E1F2EF62D202E8312BA
:100C42000313D001D1010518272E282E332E051F9C
:100C52002B2E2C2E2E2E332E332E851C312E322E61
:100C6200E32D332E051F362E372E9F2C392E392E8B
:100C720005193C2E3D2E392E3E2E40083E07BC0063
:100C820041080318410A3F07BD003D08CF01CF07C5
:100C92003C08CE01CE070A30F0000030F1004F08C8
:100CA200F301F3074E08F201F2070A128A117023C8
:100CB2000A128A11710883120313A701A707700889
:100CC200A601A6070A30F0000030F1004F08F30138
:100CD200F3074E08F201F2070A128A11D6230A120A
:100CE2008A11710883120313CF01CF077008CE0156
:100CF200CE070A30F0000030F1004F08F301F3078D
:100D02004E08F201F2070A128A1170230A128A119E
:100D1200710883120313A501A5077008A401A40793
:100D22000A30F0000030F1004F08F301F3074E08DB
:100D3200F201F2070A128A11D6230A128A117108E5
:100D420083120313CF01CF077008CE01CE070A30FA
:100D5200F0000030F1004F08F301F3074E08F201F2
:100D6200F2070A128A1170230A128A117108831279
:100D72000313A301A3077008A201A2070A30F0001F
:100D82000030F1004F08F301F3074E08F201F207B9
:100D92000A128A11D6230A128A11710883120313C6
:100DA200CF01CF077008CE01CE070A30F000003025
:100DB200F1004F08F301F3074E08F201F2070A129D
:100DC2008A1170230A128A11710883120313A10176
:100DD200A1077008A001A007F12FFE2E83120313B2
:100DE2008513091509148914280886000130D007D3
:100DF2000318D10A0030D107FE2E5108803AFF00B5
:100E02008B307F02031D072FB8305002031C0A2FBC
:100E12000B2FEF2E0C2F83120313D001D1011A2FA7
:100E2200013083120313D0070318D10A0030D1070F
:100E32001A2F5108803AFF008B307F02031D232FA7
:100E4200B8305002031C262F272F112F282F831270
:100E52000313D001D1013C2F83120313851709110B
:100E6200091489142A0886000130D0070318D10A10
:100E72000030D1073C2F5108803AFF008B307F02AF
:100E8200031D452FB8305002031C482F492F2D2F28
:100E92004A2F83120313D001D101592F8312031356
:100EA20086170130D0070318D10A0030D107592F15
:100EB2005108803AFF008B307F02031D622FB83049
:100EC2005002031C652F662F4F2F672F83120313C7
:100ED200D001D1017B2F8312031385170915091045
:100EE20089142C0886000130D0070318D10A00307B
:100EF200D1077B2F5108803AFF008B307F02031D00
:100F0200842FB8305002031C872F882F6C2F892F13
:100F120083120313D001D101972F013083120313DF
:100F2200D0070318D10A0030D107972F5108803A11
:100F3200FF008B307F02031DA02FB8305002031C2C
:100F4200A32FA42F8E2FA52F83120313D001D1011B
:100F5200B92F8312031385170915091489102E0856
:100F620086000130D0070318D10A0030D107B92F0B
:100F72005108803AFF008B307F02031DC22FB83028
:100F82005002031CC52FC62FAA2FC72F831203138B
:100F9200D001D101D52F013083120313D0070318DA
:100FA200D10A0030D107D52F5108803AFF008B308B
:100FB2007F02031DDE2FB8305002031CE12FE22F07
:100FC200CC2FE32F83120313D001D1010518EA2F8E
:100FD200EB2F9F2C851CEE2FEF2FF12F9F2C9F2C98
:100FE200051CF42FF52FFE2E851CF82FF92FFE2E4F
:0E0FF2009F2C9F2C9F2C9F2C0A128A110028E6
:00000001FF
