:060000000A128A11992D7D
:100B3200FB01FC0183010A128A11382F831203136D
:100B4200081088100E3087000A128A11E5250A1251
:100B52008A110800831203130810881038308700A6
:100B62000A128A11E5250A128A110800F20083127C
:100B7200031308108810720887000A128A11E525EB
:100B82000A128A110800F200831203130814881053
:100B9200720887000A128A11E5250A128A110800D2
:100BA200D32DD32DFF30F0070318F10AFF30F107E0
:100BB200FF307106031DDF2DFF307006031DE22D8D
:100BC200E32DD32DE42D080083120313081564309E
:100BD200F0000030F1000A128A11D1250A128A119E
:100BE2008312031308116430F0000030F1000A127E
:100BF2008A11D1250A128A11080083308312031345
:100C02009F008030831603139F00072E83129F18C4
:100C12000B2E0C2E072E0D2E831603131E08F0002A
:100C2200F1017008F4007108F500831203131E0825
:100C3200F000F1017008F2007108F3007308720409
:100C4200031D242E252E2C2E7508FC01FC0774088A
:100C5200FB01FB072C2E013072067304031D322E9A
:100C6200332E3C2E7408003EFB0075080318013E2B
:100C7200013EFC003C2E023072067304031D422E1C
:100C8200432E4C2E7408003EFB0075080318013EEB
:100C9200023EFC004C2E033072067304031D522EDA
:100CA200532E5D2E7408003EFB0075080318013EAA
:100CB200033EFC005D2E5D2E0800F601F31F622E3E
:100CC200632E6C2EF209F309F20A0319F30AF601F4
:100CD2000314F60D6C2EF11F6F2E702E762EF00976
:100CE200F109F00A0319F10A762E7108700403194A
:100CF2007B2E7C2EB22EF5010314F50D8C2E0130C5
:100D02000310F00DF10DFF3E031D812E0130F400A2
:100D12007408F5078C2EF11F8F2E902E802E922EA6
:100D2200922E71087302031D982E70087202031C22
:100D32009B2E9C2EA32E7008F2027108031CF30353
:100D4200F302A32E01300310F10CF00CFF3E031D41
:100D5200A42E0130F502031DAF2EB02E922EB22E1C
:100D6200B22E7608031DB62EBC2EF209F309F20A42
:100D72000319F30ABC2E7308F101F1077208F0019E
:100D8200F007C32E0800F601F11FC82EC92ED22E7D
:100D9200F009F109F00A0319F10AF6010314F60D3C
:100DA200D22EF31FD52ED62EE02EF209F309F20A27
:100DB2000319F30A0130F4007408F606E02EF70175
:100DC200F801710870040319E72EE82E262FF501A9
:100DD2000314F50DF82E01300310F00DF10DFF3E56
:100DE200031DED2E0130F4007408F507F82EF11FF3
:100DF200FB2EFC2EEC2EFE2EFE2E01300310F70DE4
:100E0200F80DFF3E031DFF2E71087302031D0B2F09
:100E120070087202031C0E2F0F2F172F7008F20298
:100E22007108031CF303F3027714172F0130031028
:100E3200F10CF00CFF3E031D182F0130F502031DCB
:100E4200232F242FFE2E262F262F7608031D2A2F2E
:100E5200302FF709F809F70A0319F80A302F780832
:100E6200F101F1077708F001F007372F080083122C
:100E720003138501013083160313850083120313C4
:100E820087018316031387018312031388018316D4
:100E920003138801013083160317880089010A129F
:100EA2008A119F250A128A110A128A11AB250A1287
:100EB2008A115B2F0A128A11FE250A128A11FC1B63
:100EC200632F642F762F7C08803AFF0080307F02E8
:100ED200031D6D2FC9307B020318702F712F762FDF
:100EE2008312031305118514762F7C08803AFF00C4
:100EF20080307F02031D7F2FC8307B02031C822FAC
:100F0200832F952F7C08803AFF0082307F02031DD9
:100F12008C2FBD307B0203188F2F902F952F8312B9
:100F2200031385100511952F7C08803AFF0082304B
:100F32007F02031D9E2FBC307B02031CA12FA22F18
:100F4200B42F7C08803AFF0084307F02031DAB2F50
:100F520000307B020318AE2FAF2FB42F831203137E
:100F620085100515B42F0330F9000030FA00FA1F7E
:100F7200BB2FBC2FBE2F5B2F5B2F7908803E0A123E
:100F82008A11B7250A128A110A30F0000030F100E6
:100F92007C08F301F3077B08F201F2070A128A11B7
:100FA2005E260A128A117008303E0A128A11C4257E
:100FB2000A128A110A30F0000030F1007C08F301B5
:100FC200F3077B08F201F2070A128A11C4260A12F9
:100FD2008A117108FC01FC077008FB01FB07FF3056
:100FE200F9070318FA0AFF30FA07FA1FF92FFA2F46
:0E0FF200BE2F5B2F5B2F5B2F0A128A11002887
:00000001FF
