:060000000A128A11B72F5D
:100F6E0083010A128A11BB2F831203138501860196
:100F7E0083160313850186018316031788018901E1
:100F8E00C82F013083160313860083120313061C29
:100F9E00D12FD22FDA2F8618D52FD62FDA2F051470
:100FAE0085108610DA2F0230831603138600831203
:100FBE000313861CE32FE42FEC2F0618E72FE82FE0
:100FCE00EC2F851405100610EC2F04308316031336
:100FDE00860083120313061DF52FF62FC82F05105A
:100FEE00851006108610C82FC82FC82F0A128A1116
:020FFE000028C9
:00000001FF
