:060000000A128A11102F04
:100E200083010A128A11142F83120313850186018C
:100E30008316031385010330860083160317880188
:100E40008901F801F9010130F0000030F1000130B2
:100E500070067104031D2D2F2E2F742F8312031380
:100E60000618332F342F392F861C372F382F482F51
:100E7000392F0130F4000030F5003E2F0618412FC5
:100E8000422F3E2F8618452F462F3E2F482F482FA2
:100E9000013074067504031D4E2F4F2F742FF80177
:100EA000F9015C2F8312031305140130F8070318AE
:100EB000F90A0030F9075C2F7908803AFF00F53015
:100EC0007F02031D652F30307802031C682F692FC5
:100ED000522F8312031305100230F0000030F1008E
:100EE000F801F901742F742F023070067104031D8C
:100EF0007A2F7B2F272F831203130618802F812F21
:100F0000862F861C842F852F952F862F0230F60082
:100F10000030F7008B2F06188E2F8F2F8B2F8618FF
:100F2000922F932F8B2F952F952F023076067704D3
:100F3000031D9B2F9C2F272FF801F901F201F301CC
:100F40007308803AFF0080307F02031DA92F023012
:100F50007202031CAC2FAD2FBA2FF52FF52FBA2F2D
:100F60008312031305140130F8070318F90A00303F
:100F7000F907BA2F7908803AFF00F5307F02031D88
:100F8000C32F30307802031CC62FC72FB02FD32FAA
:100F9000D32F831203130510FF30F8070318F90A43
:100FA000FF30F907D32F7908803AFF0080307F02A5
:100FB000031DDC2F013078020318DF2FE02FC92F2B
:100FC000E12F0130F2070318F30A0030F30773082A
:100FD000803AFF0080307F02031DF02F0230720242
:100FE000031CF32FF42FBA2FF52FF601F701F401AC
:100FF000F501272F272F272F272F0A128A110028C4
:00000001FF
