:060000000A128A113F2FD5
:100E480073346134623469346E34003400340034ED
:100E5800003400347E088A007F0882002E270A1298
:100E68008A118000840A04087D0603190034FF0AE9
:100E78000319FE0A322F83132A30FD000730FE00C3
:100E88002430FF00203084000A128A1132270A1207
:100E98008A1183010A128A11A82F532F532FFF306A
:100EA800F0070318F10AFF30F107FF307106031D40
:100EB8005F2FFF307006031D622F632F532F642F9F
:100EC8000800F300F401F5017508803AFF0080304E
:100ED8007F02031D712F05307402031C742F752FB8
:100EE800772FA72FA72F7308840083130008831276
:100EF800031393000130F2007208F3071030F0007A
:100F08002730F1000A128A1151270A128A118C2FF0
:100F1800831203138C1D912F922F8C2F8C1101306B
:100F2800F4070318F50A0030F5077508803AFF0042
:100F380080307F02031DA22F05307402031CA52FE9
:100F4800A62F772FA72F0800831203138501831676
:100F58000313850183120313870183160313870183
:100F6800831603178801890183160313940120301F
:100F78008312031394002A3084002030F6000408FA
:100F8800F7000A30F8007608840083130008F90097
:100F9800F60A7708840079088000F70AF80BC72F4B
:100FA800D52F83120313051085142A300A128A11CB
:100FB80065270A128A11E830F0000330F1000A129E
:100FC8008A1151270A128A118312031305148510F6
:100FD8002A300A128A1165270A128A11E830F000AD
:100FE8000330F1000A128A1151270A128A11D52FEB
:080FF800D52F0A128A1100280E
:00000001FF
