:060000000A128A111C2FF8
:100E3800F601F701F801F901FA0183010A128A1192
:100E4800842F83120313061086100E3088000A12AE
:100E58008A116B270A128A110800831203130610DD
:100E68008610383088000A128A116B270A128A11F4
:100E78000800F20083120313061086107208880017
:100E88000A128A116B270A128A110800F2008312CB
:100E9800031306148610720888000A128A116B2739
:100EA8000A128A110800592F592FFF30F00703182A
:100EB800F10AFF30F107FF307106031D652FFF307F
:100EC8007006031D682F692F592F6A2F0800831297
:100ED800031306156430F0000030F1000A128A117D
:100EE80057270A128A118312031306116430F0007F
:100EF8000030F1000A128A1157270A128A110800D5
:100F0800831203138501203083160313850083128F
:100F180003138601831603138601831203138701C3
:100F28008801183083160313870088018316031776
:100F38008801890183160313940124308312031353
:100F480094000A128A1125270A128A110A128A1194
:100F580031270A128A11B02F0A128A11BA270A12E7
:100F68008A11B02FB02F0A128A110028F401F50156
:100F78007508803AFF0080307F02031DC52F0530B9
:100F88007402031CC82FC92FCC2FFF2FFF2FCC2F83
:100F9800831203138C1DD12FD22FCC2FD32F1308DC
:100FA800F3007408763E8400730880008C1174087E
:100FB800803E0A128A113D270A128A117408763E69
:100FC800840000080A128A114A270A128A1101307D
:100FD800F4070318F50A0030F5077508803AFF0092
:100FE80080307F02031DFA2F05307402031CFD2F89
:080FF800FE2FCC2FFF2F080093
:00000001FF
