:060000000A128A11172EFE
:100C2E0083010A128A111B2E8312031385010730CA
:100C3E008316031385008312031386018316031391
:100C4E00860183160317880189010130831203136D
:100C5E00A4000030A5000030A3000030A200003038
:100C6E00A1000030A000AE01AF01A601A7013F2EEA
:100C7E00013024062504031D452E462EA92E0130D3
:100C8E00A007003003180130A1070030031801300F
:100C9E00A207003003180130A307051C572E582E4B
:100CAE00702E2E08F0007007283E8400013083134A
:100CBE008000840A00308000642E0518672E682E8E
:100CCE00642E692E0130AE070318AF0A0030AF074D
:100CDE00702E851C732E742E8C2E2E08F00070072D
:100CEE00283E8400023083138000840A0030800086
:100CFE00802E8518832E842E802E852E0130AE07F1
:100D0E000318AF0A0030AF078C2E051D8F2E902EC4
:100D1E00A92E2E08F0007007283E8400033083139E
:100D2E008000840A003080009C2E05199F2EA02E74
:100D3E009C2EA12E0130AE070318AF0A0030AF076C
:100D4E00A92EA92E2308803AFF000030803A7F0298
:100D5E00031DBB2E00302202031DBB2EC330210209
:100D6E00031DBB2E51302002031CBE2EBF2EC32EE0
:100D7E000230A4000030A500023024062504031D15
:100D8E00C92ECA2E3F2EAE01AF012F08803AFF00AA
:100D9E0080307F02031DD52E03302E02031CD82E69
:100DAE00D92EDB2EF62FF62F831203132E08F0000A
:100DBE007007283E840083130008F100840A00089F
:100DCE00F200013071067204031DEE2EEF2E342F49
:100DDE00212F212F013083120313A6070318A70A10
:100DEE000030A70706140518FD2EFE2E062F8518B7
:100DFE00012F022F062F051D052F062F212F06105E
:100E0E00861006110130A4000030A5000030A300AA
:100E1E000030A2000030A1000030A000A801A901FE
:100E2E00AA01AB01AC01AD010330AE000030AF0042
:100E3E002E2F212F2708803AFF00F5307F02031D49
:100E4E002A2F30302602031C2D2F2E2FF12E831227
:100E5E0003130610A601A701342F2E08F000700709
:100E6E00283E840083130008F100840A0008F20073
:100E7E00023071067204031D452F462F8B2F782FDB
:100E8E00782F013083120313A6070318A70A003028
:100E9E00A70786140518542F552F5D2F8518582F28
:100EAE00592F5D2F051D5C2F5D2F782F0610861094
:100EBE0006110130A4000030A5000030A300003060
:100ECE00A2000030A1000030A000A801A901AA01D3
:100EDE00AB01AC01AD010330AE000030AF00852F89
:100EEE00782F2708803AFF00F5307F02031D812FEF
:100EFE0030302602031C842F852F482F83120313B4
:100F0E008610A601A7018B2F2E08F0007007283E31
:100F1E00840083130008F100840A0008F2000330F5
:100F2E0071067204031D9C2F9D2FE22FCF2FCF2F02
:100F3E00013083120313A6070318A70A0030A70770
:100F4E0006150518AB2FAC2FB42F8518AF2FB02F69
:100F5E00B42F051DB32FB42FCF2F061086100611F8
:100F6E000130A4000030A5000030A3000030A20024
:100F7E000030A1000030A000A801A901AA01AB0118
:100F8E00AC01AD010330AE000030AF00DC2FCF2F2F
:100F9E002708803AFF00F5307F02031DD82F30302E
:100FAE002602031CDB2FDC2F9F2F83120313061147
:100FBE00A601A701E22F0130AE070318AF0A0030D9
:100FCE00AF072F08803AFF0080307F02031DF12FFC
:100FDE0003302E02031CF42FF52FDB2EF62F831277
:100FEE000313AE01AF013F2E3F2E3F2E0A128A1180
:020FFE000028C9
:00000001FF
