:060000000A128A11B22D64
:100B6400A001A10183010A128A11652F83120313C4
:100B7400051085100E3088000A128A1112260A12F6
:100B84008A11080083120313051085103830880079
:100B94000A128A1112260A128A110800F20083121C
:100BA400031305108510720888000A128A11122690
:100BB4000A128A110800F200831203130514851027
:100BC400720888000A128A1112260A128A11080071
:100BD400EC2DEC2D0130F0020030031CF103F10286
:100BE400FF307106031DF82DFF307006031DFB2D29
:100BF400FC2DEC2DFD2D08007108F3007008F200A7
:100C040002300310F30CF20CFF3E031D032E720896
:100C140083120313950070083039170497000800F5
:100C2400831203130515E830F0000330F1000A12B3
:100C34008A11EA250A128A11831203130511E83076
:100C4400F0000330F1000A128A11EA250A128A110F
:100C54000800AB30831203139F0080308316031304
:100C64009F00342E83129F18382E392E342E3A2E9C
:100C7400831603131E08F000F1017008F4007108D4
:100C8400F500831203131E08F000F1017008F2004E
:100C94007108F30073087204031D512E522E592E4D
:100CA4007508A101A1077408A001A007592E0130FD
:100CB40072067304031D5F2E602E692E7408003EB5
:100CC400A00075080318013E013EA100692E023000
:100CD40072067304031D6F2E702E792E7408003E65
:100CE400A00075080318013E023EA100792E0330CE
:100CF40072067304031D7F2E802E8A2E7408003E14
:100D0400A00075080318013E033EA1008A2E8A2E16
:100D14000800F601F31F8F2E902E992EF209F30985
:100D2400F20A0319F30AF6010314F60D992EF11FC2
:100D34009C2E9D2EA32EF009F109F00A0319F10A45
:100D4400A32E710870040319A82EA92EDF2EF50115
:100D54000314F50DB92E01300310F00DF10DFF3E13
:100D6400031DAE2E0130F4007408F507B92EF11FEF
:100D7400BC2EBD2EAD2EBF2EBF2E71087302031DD7
:100D8400C52E70087202031CC82EC92ED02E7008FE
:100D9400F2027108031CF303F302D02E0130031096
:100DA400F10CF00CFF3E031DD12E0130F502031DA2
:100DB400DC2EDD2EBF2EDF2EDF2E7608031DE32E64
:100DC400E92EF209F309F20A0319F30AE92E73086A
:100DD400F101F1077208F001F007F02E0800F601A6
:100DE400F11FF52EF62EFF2EF009F109F00A031972
:100DF400F10AF6010314F60DFF2EF31F022F032F41
:100E04000D2FF209F309F20A0319F30A0130F40071
:100E14007408F6060D2FF701F80171087004031920
:100E2400142F152F532FF5010314F50D252F013021
:100E34000310F00DF10DFF3E031D1A2F0130F400D5
:100E44007408F507252FF11F282F292F192F2B2F71
:100E54002B2F01300310F70DF80DFF3E031D2C2F2F
:100E640071087302031D382F70087202031C3B2F94
:100E74003C2F442F7008F2027108031CF303F302A1
:100E84007714442F01300310F10CF00CFF3E031DC6
:100E9400452F0130F502031D502F512F2B2F532FB7
:100EA400532F7608031D572F5D2FF709F809F70A0A
:100EB4000319F80A5D2F7808F101F1077708F001AA
:100EC400F007642F0800F901FA0183120313850166
:100ED40083160313850183120313860102308316DC
:100EE40003138600831203138801831603138801F6
:100EF40083160317880104308900831203138701C2
:100F040083160313870183120313880183160313C3
:100F1400880107308312031392000D3097000A12E0
:100F24008A11B8250A128A110A128A11C4250A12D2
:100F34008A119C2F0A128A112B260A128A118312F3
:100F440003132108F101F1072008F001F0070A1248
:100F54008A11FE250A128A110330FB000030FC00BE
:100F6400FC1FB52FB62FB82F9C2F9C2F7B08803EDB
:100F74000A128A11D0250A128A110A30F0000030B0
:100F8400F100831203132108F301F3072008F2018F
:100F9400F2070A128A118B260A128A117008303E4F
:100FA4000A128A11DD250A128A110A30F000003073
:100FB400F100831203132108F301F3072008F2015F
:100FC400F2070A128A11F1260A128A117108831291
:100FD4000313A101A1077008A001A007FF30FB07BC
:100FE4000318FC0AFF30FC07FC1FF92FFA2FB82F57
:0C0FF4009C2F9C2F9C2F0A128A110028B1
:00000001FF
