:060000000A128A11372FDD
:100E0A0083120313061086100E3088000A128A1104
:100E1A0059270A128A110800831203130610861032
:100E2A00383088000A128A1159270A128A110800D2
:100E3A00F2008312031306108610720888000A1241
:100E4A008A1159270A128A110800F2008312031321
:100E5A0006148610720888000A128A1159270A1283
:100E6A008A110800A001A101A201A301A401A50100
:100E7A00A601A701A801A90183010A128A11722FEA
:100E8A00472F472FFF30F0070318F10AFF30F10709
:100E9A00FF307106031D532FFF307006031D562FB6
:100EAA00572F472F582F0800831203130615643053
:100EBA00F0000030F1000A128A1145270A128A113D
:100ECA008312031306116430F0000030F1000A1295
:100EDA008A1145270A128A11080083120313860110
:100EEA0083160313860183120313870183160313E0
:100EFA0087018312031388011830831603138700AE
:100F0A008801831603178801890183160313940144
:100F1A0025308312031394000A128A1105270A1234
:100F2A008A110A128A1111270A128A119C2F0A128F
:100F3A008A11AF270A128A11E830F0000330F10053
:100F4A000A128A1145270A128A119C2F9C2F0A120B
:100F5A008A110028F401F5017508803AFF008030F3
:100F6A007F02031DBA2F0A307402031CBD2FBE2F45
:100F7A00C12FFF2FFF2FC12F831203138C1DC62FE2
:100F8A00C72FC12FC82F1308F3007408203E84000E
:100F9A007308831380008C11E830F0000330F100ED
:100FAA000A128A1145270A128A117408803E0A1207
:100FBA008A111D270A128A117408203E840083139D
:100FCA0000080A128A112A270A128A110130F40724
:100FDA000318F50A0030F5077508803AFF008030DB
:100FEA007F02031DFA2F0A307402031CFD2FFE2F05
:060FFA00C12FFF2F0800CB
:00000001FF
