:100000000A128A159D2F8312031305156430F00020
:100010000030F1000A128A1589270A128A11831208
:10002000031305116430F0000030F1000A128A1544
:1000300089270A128A110800831203138501831687
:1000400003138501831203138601831603138601AC
:10005000831203138701FF30831603138700831273
:1000600003138801073083160313880083120313D8
:1000700089018316031389018316031788018901F7
:100080002F308400C430F3000408F4000830F50079
:100090007308840083170008F600F30A74088400CC
:1000A000831376088000F40AF50B48280130DE003F
:1000B0000030DF00E401E501E001E101CE30840021
:1000C000CC30F3000408F4001030F500730884000D
:1000D00083170008F600F30A740884008313760877
:1000E0008000F40AF50B6628373084009030F30066
:1000F0000408F4000F30F50073088400831700082B
:10010000F600F30A74088400831376088000F40A6A
:10011000F50B7C28463084009F30F3000408F4007F
:100120000F30F5007308840083170008F600F30A07
:1001300074088400831376088000F40AF50B922873
:1001400083160313ED01EE0183120313ED01EE019B
:10015000203084001030F3000408F4000F30F50064
:100160007308840083170008F600F30A74088400FB
:10017000831376088000F40AF50BB0288316031762
:10018000DC01DD0161308400BA30F3000408F400C2
:100190000A30F5007308840083170008F600F30A9C
:1001A00074088400831376088000F40AF50BCA28CB
:1001B00055308400AE30F3000408F4000C30F50034
:1001C0007308840083170008F600F30A740884009B
:1001D000831376088000F40AF50BE0280A128A15CA
:1001E0002B270A128A110A128A1537270A128A1136
:1001F000F9280130831603175E065F04031D0129E9
:100200000229D82B831203138815081288120813A9
:10021000081C0B290C2939290E290E290818112927
:1002200012290E2913293130F300831603176408AD
:10023000DE3E84007308831380006408803E0A1247
:100240008A154F270A128A11831603176408DE3EA7
:100250008400831300080A128A155C270A128A1187
:10026000013083160317E4070318E50A0030E50799
:10027000392983120313881C3E293F296C294129FF
:100280004129881844294529412946293230F3005B
:10029000831603176408DE3E84007308831380000E
:1002A0006408803E0A128A154F270A128A118316A3
:1002B00003176408DE3E8400831300080A128A15BF
:1002C0005C270A128A11013083160317E40703180A
:1002D000E50A0030E5076C2983120313081D712914
:1002E00072299F2974297429081977297829742972
:1002F00079293330F300831603176408DE3E840047
:100300007308831380006408803E0A128A154F2701
:100310000A128A11831603176408DE3E84008313D1
:1003200000080A128A155C270A128A110130831606
:100330000317E4070318E50A0030E5079F29831235
:1003400003138811081688120813081CA829A92964
:10035000D629AB29AB290818AE29AF29AB29B0297A
:100360003430F300831603176408DE3E84007308FC
:10037000831380006408803E0A128A154F270A12F0
:100380008A11831603176408DE3E84008313000875
:100390000A128A155C270A128A1101308316031784
:1003A000E4070318E50A0030E507D6298312031392
:1003B000881CDB29DC29092ADE29DE298818E129A5
:1003C000E229DE29E3293530F30083160317640898
:1003D000DE3E84007308831380006408803E0A12A6
:1003E0008A154F270A128A11831603176408DE3E06
:1003F0008400831300080A128A155C270A128A11E6
:10040000013083160317E4070318E50A0030E507F7
:10041000092A83120313081D0E2A0F2A3C2A112AC7
:10042000112A0819142A152A112A162A3630F3001F
:10043000831603176408DE3E84007308831380006C
:100440006408803E0A128A154F270A128A11831601
:1004500003176408DE3E8400831300080A128A151D
:100460005C270A128A11013083160317E407031868
:10047000E50A0030E5073C2A8312031388110812AD
:1004800088160813081C452A462A732A482A482A2F
:1004900008184B2A4C2A482A4D2A3730F300831675
:1004A00003176408DE3E8400730883138000640829
:1004B000803E0A128A154F270A128A1183160317E3
:1004C0006408DE3E8400831300080A128A155C2744
:1004D0000A128A11013083160317E4070318E50A8C
:1004E0000030E507732A83120313881C782A792ABF
:1004F000A62A7B2A7B2A88187E2A7F2A7B2A802AA2
:100500003830F300831603176408DE3E8400730856
:10051000831380006408803E0A128A154F270A124E
:100520008A11831603176408DE3E840083130008D3
:100530000A128A155C270A128A11013083160317E2
:10054000E4070318E50A0030E507A62A831203131F
:10055000081DAB2AAC2AD92AAE2AAE2A0819B12A1C
:10056000B22AAE2AB32A3930F3008316031764087F
:10057000DE3E84007308831380006408803E0A1204
:100580008A154F270A128A11831603176408DE3E64
:100590008400831300080A128A155C270A128A1144
:1005A000013083160317E4070318E50A0030E50756
:1005B000D92A831203138811081288120817081CFD
:1005C000E22AE32AA42BE52AE52A0818E82AE92AE0
:1005D000E52AEA2A0A308316031764066504031D18
:1005E000F22AF32A542BE001E1016108803AFF006E
:1005F00080307F02031DFE2A0C306002031C012B99
:10060000022B042B3F2B3F2B831603176008C03EA1
:100610000A128A154F270A128A11831603176008D7
:10062000373E8400831300080A128A155C270A12D9
:100630008A11023083120313ED000030EE00013006
:1006400083160317E0070318E10A0030E107610889
:10065000803AFF0080307F02031D302B0C30600297
:10066000031C332B342B042B3F2B3F2B01308316E1
:100670000313ED070318EE0A0030EE073F2B831635
:1006800003136E08803AFF00F5307F02031D4A2BEA
:1006900030306D02031C4D2B4E2B362B4F2B831607
:1006A0000313ED01EE01842B83160317E001E10132
:1006B0006108803AFF0080307F02031D612B0C30FF
:1006C0006002031C642B652B672B842B842B013069
:1006D00083120313ED000030EE0001308316031780
:1006E000E0070318E10A0030E1076108803AFF00E3
:1006F00080307F02031D7E2B0C306002031C812B97
:10070000822B672B842B842B0130831203136D06FD
:100710006E04031D8C2B8D2B932B02308316031735
:10072000DE000030DF000230831203136D066E041A
:10073000031D9B2B9C2BA42B033083160317DE0079
:100740000030DF00A42BA42B83120313881CA92BD9
:10075000AA2BD82BAC2BAC2B8818AF2BB02BAC2BE7
:10076000B12B3030F300831603176408DE3E84009B
:100770007308831380006408803E0A128A154F278D
:100780000A128A11831603176408DE3E840083135D
:1007900000080A128A155C270A128A110130831692
:1007A0000317E4070318E50A0030E507D82BD82B18
:1007B0000230831603175E065F04031DE02BE12B56
:1007C000A12CE001E1016108803AFF0080307F0246
:1007D000031DEC2B0C306002031CEF2BF02BF22BD3
:1007E0001C2C1C2C831603176008C03E0A128A15A5
:1007F0004F270A128A11831603176008463E8400A9
:10080000831300080A128A155C270A128A11013024
:1008100083160317E0070318E10A0030E1076108B7
:10082000803AFF0080307F02031D182C0C306002DC
:10083000031C1B2C1C2CF22B83120313881508128B
:10084000881208130818252C262C2F2C8818292CE0
:100850002A2C2F2C081D2D2C2E2C3D2C2F2C0A122F
:100860008A1543270A128A11013083160317DE0006
:100870000030DF00E401E5013D2C831203138811F1
:100880000816881208130818462C472C502C881874
:100890004A2C4B2C502C081D4E2C4F2C5E2C502CCF
:1008A0000A128A1543270A128A1101308316031788
:1008B000DE000030DF00E401E5015E2C831203134B
:1008C00088110812881608130818672C682C712CD8
:1008D00088186B2C6C2C712C081D6F2C702C7F2CA5
:1008E000712C0A128A1543270A128A1101308316C5
:1008F0000317DE000030DF00E401E5017F2C8312E6
:10090000031388110812881208170818882C892CDC
:10091000922C88188C2C8D2C922C081D902C912CAC
:10092000A12C922C0A128A1543270A128A1101302F
:1009300083160317DE000030DF00E401E501A12C7F
:10094000A12C0330831603175E065F04031DA92C38
:10095000AA2CCD2DE201E3016308803AFF0080302C
:100960007F02031DB52C08306202031CB82CB92C81
:10097000BB2CEF2CEF2C831603176208F3007307D0
:10098000CE3E8400003083138000840A0030800053
:100990006208F3007307A03E840000308000840AE0
:1009A000003080006208F3007307BE3E8400003010
:1009B0008000840A003080000130E2070318E30A57
:1009C0000030E3076308803AFF0080307F02031D98
:1009D000EB2C08306202031CEE2CEF2CBB2C831294
:1009E0000313071CF42CF52CFC2C01308316031385
:1009F000CE000030CF00FC2C8312871C002D012D6F
:100A0000082D023083160313D0000030D100082DCA
:100A10008312071D0C2D0D2D142D03308316031387
:100A2000D2000030D300142D8312871D182D192DEC
:100A3000202D043083160313D4000030D500202D60
:100A40008312071E242D252D2C2D0530831603130C
:100A5000D6000030D7002C2D8312871E302D312D6B
:100A6000382D063083160313D8000030D900382DF6
:100A70008312071F3C2D3D2D442D07308316031391
:100A8000DA000030DB00442D8312871F482D492DEA
:100A9000502D083083160313DC000030DD00502D8C
:100AA00083160317E201E3016308803AFF008030F8
:100AB0007F02031D5D2D08306202031C602D612D35
:100AC000632DB32DB32D831603176208F30073074C
:100AD000CE3E840083130008840A0004031D712D98
:100AE000722D9F2D5C08F3007307A03E84006208FE
:100AF0008000840A630880005C08F3007307A03E4E
:100B000084000008F400840A0008F5007408313EEF
:100B1000F60075080318013E003EF7005C08F80077
:100B20007807BE3E840076088000840A770880003B
:100B30000130DC070318DD0A0030DD079F2D01308E
:100B4000E2070318E30A0030E3076308803AFF0076
:100B500080307F02031DAE2D08306202031CB12DD0
:100B6000B22D632DB32D053083120313EB0000303B
:100B7000EC0083160317E201E3010530831203132F
:100B80006B066C04031DC52DC62DCD2D04308316B8
:100B90000317DE000030DF00CD2D0430831603176D
:100BA0005E065F04031DD52DD62DE32E0A128A158D
:100BB00043270A128A1183160317E201E30163082F
:100BC000803AFF0080307F02031DE82D043062026E
:100BD000031CEB2DEC2DEE2D192E192E8316031769
:100BE0006208803E0A128A154F270A128A1183165C
:100BF00003176208553E8400831300080A128A1501
:100C00005C270A128A11013083160317E2070318C2
:100C1000E30A0030E3076308803AFF0080307F0278
:100C2000031D142E04306202031C172E182EEE2D05
:100C3000192E83160317E201E3016308803AFF00CF
:100C400080307F02031D262E08306202031C292EED
:100C50002A2E2C2E592E592E831603176208843EF5
:100C60000A128A154F270A128A118316031762087F
:100C7000F3007307BE3E8400831300080A128A152E
:100C80005C270A128A11013083160317E207031842
:100C9000E30A0030E3076308803AFF0080307F02F8
:100CA000031D542E08306202031C572E582E2C2E82
:100CB000592E83160317E201E3016308803AFF000F
:100CC00080307F02031D662E04306202031C692EF1
:100CD0006A2E6C2E972E972E831603176208C03E3D
:100CE0000A128A154F270A128A11831603176208FF
:100CF000613E8400831300080A128A155C270A12D9
:100D00008A11013083160317E2070318E30A003043
:100D1000E3076308803AFF0080307F02031D922EB4
:100D200004306202031C952E962E6C2E972EC53031
:100D30000A128A154F270A128A11831603133E08D6
:100D40000A128A155C270A128A11063083120313CD
:100D5000EB000030EC0083160317DC01DD01831685
:100D60000313ED01EE010630831203136B066C04CE
:100D7000031DBB2EBC2EE32EC72EC72E01308316BB
:100D80000313ED070318EE0A0030EE07C72E831693
:100D900003136E08803AFF00F5307F02031DD22E48
:100DA00030306D02031CD52ED62EBE2ED72E8316C4
:100DB0000313ED01EE01053083160317DE0000304A
:100DC000DF00E32EE32E0530831603175E065F0473
:100DD000031DEB2EEC2EF92883120313881508123D
:100DE00088120813081CF52EF62E072F0A128A15F2
:100DF00043270A128A1183160317E401E501013023
:100E0000DE000030DF00831203130914072F881C53
:100E10000A2F0B2F1C2F0A128A1543270A128A1138
:100E200083160317E401E5010130DE000030DF0026
:100E30008312031309141C2F081D1F2F202F312F7D
:100E40000A128A1543270A128A1183160317E4012E
:100E5000E5010130DE000030DF00831203130914C6
:100E6000312F8811081688120813081C382F392FC3
:100E70004A2F0A128A1543270A128A11831603176A
:100E8000E401E5010130DE000030DF0083120313CE
:100E900009144A2F881C4D2F4E2F5F2F0A128A15D6
:100EA00043270A128A1183160317E401E501013072
:100EB000DE000030DF008312031309145F2F081DCA
:100EC000622F632F742F0A128A1543270A128A1180
:100ED00083160317E401E5010130DE000030DF0076
:100EE000831203130914742F88110812881608132B
:100EF000081C7B2F7C2F8D2F0A128A1543270A127C
:100F00008A1183160317E401E5010130DE00003089
:100F1000DF008312031309148D2F881C902F912F4B
:100F2000A22F0A128A1543270A128A118316031761
:100F3000E401E5010130DE000030DF00831203131D
:100F40000914A22F081DA52FA62FB72F0A128A1544
:100F500043270A128A1183160317E401E5010130C1
:100F6000DE000030DF00831203130914B72F88114D
:100F7000081288120817081CBE2FBF2FD02F0A1284
:100F80008A1543270A128A1183160317E401E50123
:100F90000130DE000030DF00831203130914D02F6C
:100FA000881CD32FD42FE52F0A128A1543270A1243
:100FB0008A1183160317E401E5010130DE000030D9
:100FC000DF00831203130914E52F081DE82FE92F12
:100FD000F9280A128A1543270A128A118316031761
:100FE000E401E5010130DE000030DF00831203136D
:100FF0000914F928F928F928F9280A128A11002871
:101E460064008001840A0406031900340406242F62
:101E560083120313051085100E3086000A128A11AC
:101E660003200A128A150800831203130510851031
:101E7600383086000A128A1103200A128A150800D1
:101E86008312031305108510013086000A128A1189
:101E960003200A128A150800F200831203130510A4
:101EA6008510720886000A128A1103200A128A1502
:101EB6000800F200831203130514851072088600C9
:101EC6000A128A1103200A128A1508006E34653434
:101ED600773420346934743465346D340034003416
:101EE600003400340034003400347E088A007F0851
:101EF600820078270A128A158000840A04087D0663
:101F060003190034FF0A0319FE0A7C2F8B2F8B2F2F
:101F1600FF30F0070318F10AFF30F107FF307106B2
:101F2600031D972FFF307006031D9A2F9B2F8B2FB3
:101F36009C2F08008317CC308400DC300A128A15E7
:101F460023270A128A15CC30FD000F30FE00C4305C
:101F5600FF00903084000A128A157C270A128A151F
:101F66001F30FD000F30FE006930FF001030840086
:101F76000A128A157C270A128A1583010A128A1107
:101F86001C285234653467346934733474346534C8
:101F96007234653464340034003400340034003460
:101FA600573472346F346E34673420346E3475347B
:101FB6006D3462346534723400340034003446348F
:101FC600723465346534003400340034003400342F
:101FD6000034003400344E346534613472340034D5
:101FE60000340034003400340034573465346C3423
:0A1FF60063346F346D346534003439
:00000001FF
