:060000000A128A116A2FAA
:100ED400F001F10183010A128A117F2F8312031397
:100EE4008C1C752F762F7E2F0130F0070318F10A22
:100EF4000030F1078C107E2F080083160313850140
:100F040083120313850183160313870183120313CA
:100F140087017F3092008316031788018901922F7D
:100F24000A128A1170270A128A11F11B9A2F9B2F19
:100F3400AD2F7108803AFF0080307F02031DA42F7B
:100F44004C3070020318A72FA82FAD2F8312031360
:100F540085100514AD2F7108803AFF0080307F02A0
:100F6400031DB62F4B307002031CB92FBA2FCC2FA0
:100F74007108803AFF0080307F02031DC32F973031
:100F840070020318C62FC72FCC2F8312031305102A
:100F94008514CC2F7108803AFF0080307F02031D36
:100FA400D52F96307002031CD82FD92FEB2F710840
:100FB400803AFF0080307F02031DE22FE23070028E
:100FC4000318E52FE62FEB2F83120313051085106A
:100FD400EB2F7108803AFF0080307F02031DF42F4D
:100FE400E2307002031CF72FF82F922FF001F10169
:0C0FF400922F922F922F0A128A110028CF
:00000001FF
